{
  "contractName": "Election",
  "abi": [
    {
      "inputs": [],
      "payable": false,
      "stateMutability": "nonpayable",
      "type": "constructor",
      "signature": "constructor"
    },
    {
      "anonymous": false,
      "inputs": [
        {
          "indexed": false,
          "internalType": "uint256",
          "name": "indexed_candidateId",
          "type": "uint256"
        }
      ],
      "name": "votedEvent",
      "type": "event",
      "signature": "0xfff3c900d938d21d0990d786e819f29b8d05c1ef587b462b939609625b684b16"
    },
    {
      "constant": true,
      "inputs": [
        {
          "internalType": "uint256",
          "name": "",
          "type": "uint256"
        }
      ],
      "name": "candidates",
      "outputs": [
        {
          "internalType": "uint256",
          "name": "id",
          "type": "uint256"
        },
        {
          "internalType": "string",
          "name": "CfirstName",
          "type": "string"
        },
        {
          "internalType": "string",
          "name": "ClastName",
          "type": "string"
        },
        {
          "internalType": "string",
          "name": "CidNumber",
          "type": "string"
        },
        {
          "internalType": "uint256",
          "name": "voteCount",
          "type": "uint256"
        }
      ],
      "payable": false,
      "stateMutability": "view",
      "type": "function",
      "signature": "0x3477ee2e"
    },
    {
      "constant": true,
      "inputs": [],
      "name": "candidatesCount",
      "outputs": [
        {
          "internalType": "uint256",
          "name": "",
          "type": "uint256"
        }
      ],
      "payable": false,
      "stateMutability": "view",
      "type": "function",
      "signature": "0x2d35a8a2"
    },
    {
      "constant": true,
      "inputs": [],
      "name": "manager",
      "outputs": [
        {
          "internalType": "address",
          "name": "",
          "type": "address"
        }
      ],
      "payable": false,
      "stateMutability": "view",
      "type": "function",
      "signature": "0x481c6a75"
    },
    {
      "constant": true,
      "inputs": [
        {
          "internalType": "uint256",
          "name": "",
          "type": "uint256"
        }
      ],
      "name": "users",
      "outputs": [
        {
          "internalType": "string",
          "name": "firstName",
          "type": "string"
        },
        {
          "internalType": "string",
          "name": "lastName",
          "type": "string"
        },
        {
          "internalType": "string",
          "name": "idNumber",
          "type": "string"
        },
        {
          "internalType": "string",
          "name": "email",
          "type": "string"
        },
        {
          "internalType": "string",
          "name": "password",
          "type": "string"
        },
        {
          "internalType": "address",
          "name": "add",
          "type": "address"
        }
      ],
      "payable": false,
      "stateMutability": "view",
      "type": "function",
      "signature": "0x365b98b2"
    },
    {
      "constant": true,
      "inputs": [],
      "name": "usersCount",
      "outputs": [
        {
          "internalType": "uint256",
          "name": "",
          "type": "uint256"
        }
      ],
      "payable": false,
      "stateMutability": "view",
      "type": "function",
      "signature": "0x6ba13a82"
    },
    {
      "constant": true,
      "inputs": [
        {
          "internalType": "address",
          "name": "",
          "type": "address"
        }
      ],
      "name": "voters",
      "outputs": [
        {
          "internalType": "bool",
          "name": "",
          "type": "bool"
        }
      ],
      "payable": false,
      "stateMutability": "view",
      "type": "function",
      "signature": "0xa3ec138d"
    },
    {
      "constant": false,
      "inputs": [
        {
          "internalType": "string",
          "name": "_CfirstName",
          "type": "string"
        },
        {
          "internalType": "string",
          "name": "_ClastName",
          "type": "string"
        },
        {
          "internalType": "string",
          "name": "_CidNumber",
          "type": "string"
        }
      ],
      "name": "addCandidate",
      "outputs": [],
      "payable": false,
      "stateMutability": "nonpayable",
      "type": "function",
      "signature": "0xad71f8dc"
    },
    {
      "constant": false,
      "inputs": [
        {
          "internalType": "uint256",
          "name": "_candidateId",
          "type": "uint256"
        }
      ],
      "name": "vote",
      "outputs": [],
      "payable": false,
      "stateMutability": "nonpayable",
      "type": "function",
      "signature": "0x0121b93f"
    },
    {
      "constant": false,
      "inputs": [
        {
          "internalType": "string",
          "name": "_firstName",
          "type": "string"
        },
        {
          "internalType": "string",
          "name": "_lastName",
          "type": "string"
        },
        {
          "internalType": "string",
          "name": "_idNumber",
          "type": "string"
        },
        {
          "internalType": "string",
          "name": "_email",
          "type": "string"
        },
        {
          "internalType": "string",
          "name": "_password",
          "type": "string"
        }
      ],
      "name": "addUser",
      "outputs": [],
      "payable": false,
      "stateMutability": "nonpayable",
      "type": "function",
      "signature": "0xb37a3d82"
    }
  ],
  "bytecode": "0x608060405234801561001057600080fd5b50336000806101000a81548173ffffffffffffffffffffffffffffffffffffffff021916908373ffffffffffffffffffffffffffffffffffffffff1602179055506114d4806100606000396000f3fe608060405234801561001057600080fd5b50600436106100935760003560e01c8063481c6a7511610066578063481c6a75146104fb5780636ba13a8214610545578063a3ec138d14610563578063ad71f8dc146105bf578063b37a3d82146107a857610093565b80630121b93f146100985780632d35a8a2146100c65780633477ee2e146100e4578063365b98b214610271575b600080fd5b6100c4600480360360208110156100ae57600080fd5b8101908080359060200190929190505050610abf565b005b6100ce610bee565b6040518082815260200191505060405180910390f35b610110600480360360208110156100fa57600080fd5b8101908080359060200190929190505050610bf4565b60405180868152602001806020018060200180602001858152602001848103845288818151815260200191508051906020019080838360005b83811015610164578082015181840152602081019050610149565b50505050905090810190601f1680156101915780820380516001836020036101000a031916815260200191505b50848103835287818151815260200191508051906020019080838360005b838110156101ca5780820151818401526020810190506101af565b50505050905090810190601f1680156101f75780820380516001836020036101000a031916815260200191505b50848103825286818151815260200191508051906020019080838360005b83811015610230578082015181840152602081019050610215565b50505050905090810190601f16801561025d5780820380516001836020036101000a031916815260200191505b509850505050505050505060405180910390f35b61029d6004803603602081101561028757600080fd5b8101908080359060200190929190505050610df2565b6040518080602001806020018060200180602001806020018773ffffffffffffffffffffffffffffffffffffffff1673ffffffffffffffffffffffffffffffffffffffff16815260200186810386528c818151815260200191508051906020019080838360005b8381101561031f578082015181840152602081019050610304565b50505050905090810190601f16801561034c5780820380516001836020036101000a031916815260200191505b5086810385528b818151815260200191508051906020019080838360005b8381101561038557808201518184015260208101905061036a565b50505050905090810190601f1680156103b25780820380516001836020036101000a031916815260200191505b5086810384528a818151815260200191508051906020019080838360005b838110156103eb5780820151818401526020810190506103d0565b50505050905090810190601f1680156104185780820380516001836020036101000a031916815260200191505b50868103835289818151815260200191508051906020019080838360005b83811015610451578082015181840152602081019050610436565b50505050905090810190601f16801561047e5780820380516001836020036101000a031916815260200191505b50868103825288818151815260200191508051906020019080838360005b838110156104b757808201518184015260208101905061049c565b50505050905090810190601f1680156104e45780820380516001836020036101000a031916815260200191505b509b50505050505050505050505060405180910390f35b610503611146565b604051808273ffffffffffffffffffffffffffffffffffffffff1673ffffffffffffffffffffffffffffffffffffffff16815260200191505060405180910390f35b61054d61116b565b6040518082815260200191505060405180910390f35b6105a56004803603602081101561057957600080fd5b81019080803573ffffffffffffffffffffffffffffffffffffffff169060200190929190505050611171565b604051808215151515815260200191505060405180910390f35b6107a6600480360360608110156105d557600080fd5b81019080803590602001906401000000008111156105f257600080fd5b82018360208201111561060457600080fd5b8035906020019184600183028401116401000000008311171561062657600080fd5b91908080601f016020809104026020016040519081016040528093929190818152602001838380828437600081840152601f19601f8201169050808301925050505050505091929192908035906020019064010000000081111561068957600080fd5b82018360208201111561069b57600080fd5b803590602001918460018302840111640100000000831117156106bd57600080fd5b91908080601f016020809104026020016040519081016040528093929190818152602001838380828437600081840152601f19601f8201169050808301925050505050505091929192908035906020019064010000000081111561072057600080fd5b82018360208201111561073257600080fd5b8035906020019184600183028401116401000000008311171561075457600080fd5b91908080601f016020809104026020016040519081016040528093929190818152602001838380828437600081840152601f19601f820116905080830192505050505050509192919290505050611191565b005b610abd600480360360a08110156107be57600080fd5b81019080803590602001906401000000008111156107db57600080fd5b8201836020820111156107ed57600080fd5b8035906020019184600183028401116401000000008311171561080f57600080fd5b91908080601f016020809104026020016040519081016040528093929190818152602001838380828437600081840152601f19601f8201169050808301925050505050505091929192908035906020019064010000000081111561087257600080fd5b82018360208201111561088457600080fd5b803590602001918460018302840111640100000000831117156108a657600080fd5b91908080601f016020809104026020016040519081016040528093929190818152602001838380828437600081840152601f19601f8201169050808301925050505050505091929192908035906020019064010000000081111561090957600080fd5b82018360208201111561091b57600080fd5b8035906020019184600183028401116401000000008311171561093d57600080fd5b91908080601f016020809104026020016040519081016040528093929190818152602001838380828437600081840152601f19601f820116905080830192505050505050509192919290803590602001906401000000008111156109a057600080fd5b8201836020820111156109b257600080fd5b803590602001918460018302840111640100000000831117156109d457600080fd5b91908080601f016020809104026020016040519081016040528093929190818152602001838380828437600081840152601f19601f82011690508083019250505050505050919291929080359060200190640100000000811115610a3757600080fd5b820183602082011115610a4957600080fd5b80359060200191846001830284011164010000000083111715610a6b57600080fd5b91908080601f016020809104026020016040519081016040528093929190818152602001838380828437600081840152601f19601f8201169050808301925050505050505091929192905050506112ae565b005b600160003373ffffffffffffffffffffffffffffffffffffffff1673ffffffffffffffffffffffffffffffffffffffff16815260200190815260200160002060009054906101000a900460ff1615610b1657600080fd5b600081118015610b2857506003548111155b610b3157600080fd5b60018060003373ffffffffffffffffffffffffffffffffffffffff1673ffffffffffffffffffffffffffffffffffffffff16815260200190815260200160002060006101000a81548160ff021916908315150217905550600260008281526020019081526020016000206004016000815480929190600101919050555060008190507ffff3c900d938d21d0990d786e819f29b8d05c1ef587b462b939609625b684b16826040518082815260200191505060405180910390a15050565b60035481565b6002602052806000526040600020600091509050806000015490806001018054600181600116156101000203166002900480601f016020809104026020016040519081016040528092919081815260200182805460018160011615610100020316600290048015610ca65780601f10610c7b57610100808354040283529160200191610ca6565b820191906000526020600020905b815481529060010190602001808311610c8957829003601f168201915b505050505090806002018054600181600116156101000203166002900480601f016020809104026020016040519081016040528092919081815260200182805460018160011615610100020316600290048015610d445780601f10610d1957610100808354040283529160200191610d44565b820191906000526020600020905b815481529060010190602001808311610d2757829003601f168201915b505050505090806003018054600181600116156101000203166002900480601f016020809104026020016040519081016040528092919081815260200182805460018160011615610100020316600290048015610de25780601f10610db757610100808354040283529160200191610de2565b820191906000526020600020905b815481529060010190602001808311610dc557829003601f168201915b5050505050908060040154905085565b6004602052806000526040600020600091509050806000018054600181600116156101000203166002900480601f016020809104026020016040519081016040528092919081815260200182805460018160011615610100020316600290048015610e9e5780601f10610e7357610100808354040283529160200191610e9e565b820191906000526020600020905b815481529060010190602001808311610e8157829003601f168201915b505050505090806001018054600181600116156101000203166002900480601f016020809104026020016040519081016040528092919081815260200182805460018160011615610100020316600290048015610f3c5780601f10610f1157610100808354040283529160200191610f3c565b820191906000526020600020905b815481529060010190602001808311610f1f57829003601f168201915b505050505090806002018054600181600116156101000203166002900480601f016020809104026020016040519081016040528092919081815260200182805460018160011615610100020316600290048015610fda5780601f10610faf57610100808354040283529160200191610fda565b820191906000526020600020905b815481529060010190602001808311610fbd57829003601f168201915b505050505090806003018054600181600116156101000203166002900480601f0160208091040260200160405190810160405280929190818152602001828054600181600116156101000203166002900480156110785780601f1061104d57610100808354040283529160200191611078565b820191906000526020600020905b81548152906001019060200180831161105b57829003601f168201915b505050505090806004018054600181600116156101000203166002900480601f0160208091040260200160405190810160405280929190818152602001828054600181600116156101000203166002900480156111165780601f106110eb57610100808354040283529160200191611116565b820191906000526020600020905b8154815290600101906020018083116110f957829003601f168201915b5050505050908060050160009054906101000a900473ffffffffffffffffffffffffffffffffffffffff16905086565b6000809054906101000a900473ffffffffffffffffffffffffffffffffffffffff1681565b60055481565b60016020528060005260406000206000915054906101000a900460ff1681565b6000809054906101000a900473ffffffffffffffffffffffffffffffffffffffff1673ffffffffffffffffffffffffffffffffffffffff163373ffffffffffffffffffffffffffffffffffffffff16146111ea57600080fd5b6003600081548092919060010191905055506040518060a00160405280600354815260200184815260200183815260200182815260200160008152506002600060035481526020019081526020016000206000820151816000015560208201518160010190805190602001906112619291906113fa565b50604082015181600201908051906020019061127e9291906113fa565b50606082015181600301908051906020019061129b9291906113fa565b5060808201518160040155905050505050565b6005600081548092919060010191905055506040518060c001604052808681526020018581526020018481526020018381526020018281526020013373ffffffffffffffffffffffffffffffffffffffff1681525060046000600554815260200190815260200160002060008201518160000190805190602001906113349291906113fa565b5060208201518160010190805190602001906113519291906113fa565b50604082015181600201908051906020019061136e9291906113fa565b50606082015181600301908051906020019061138b9291906113fa565b5060808201518160040190805190602001906113a89291906113fa565b5060a08201518160050160006101000a81548173ffffffffffffffffffffffffffffffffffffffff021916908373ffffffffffffffffffffffffffffffffffffffff1602179055509050505050505050565b828054600181600116156101000203166002900490600052602060002090601f016020900481019282601f1061143b57805160ff1916838001178555611469565b82800160010185558215611469579182015b8281111561146857825182559160200191906001019061144d565b5b509050611476919061147a565b5090565b61149c91905b80821115611498576000816000905550600101611480565b5090565b9056fea265627a7a723158202a39c7069ff3cf107d1da7a3ba21071d913d8f7bce1f7fb31f87f674dc39688264736f6c63430005100032",
  "source": "pragma solidity ^0.5.0;\n\ncontract Election{\n\n    address public manager;\n\n    struct Candidate {\n        uint id;\n        string CfirstName;\n        string ClastName;\n        string CidNumber;\n        uint voteCount;\n    }\n\n    mapping (address => bool) public voters;\n\n    mapping (uint => Candidate) public candidates;\n\n    uint public candidatesCount;\n\n    event votedEvent (\n        uint indexed_candidateId\n    );\n\n\n    constructor () public {\n        manager = msg.sender;\n    }\n\n    function addCandidate (string memory _CfirstName, string memory _ClastName, string memory _CidNumber) public restricted{\n        candidatesCount++;\n        candidates[candidatesCount] = Candidate(candidatesCount, _CfirstName, _ClastName, _CidNumber, 0);\n    }\n\n    modifier restricted () {\n        require(msg.sender == manager);\n        _;\n    }\n\n\n    function vote (uint _candidateId) public {\n        require(!voters[msg.sender]);\n\n        require(_candidateId > 0 && _candidateId <= candidatesCount);\n\n        voters[msg.sender] = true;\n\n        candidates[_candidateId].voteCount ++;\n\n        uint candidateId = _candidateId;\n\n        emit votedEvent(_candidateId);\n    }\n\n    //users\n    //register\n    struct User {\n        string firstName;\n        string lastName;\n        string idNumber;\n        string email;\n        string password;\n        address add;\n    }\n\n    mapping (uint => User) public users;\n\n    uint public usersCount;\n\n    function addUser (string memory _firstName, string memory _lastName, string memory _idNumber, string memory _email, string memory _password) public{\n        usersCount++;\n        users[usersCount] = User(_firstName, _lastName, _idNumber, _email, _password, msg.sender);\n    }\n\n\n\n\n}",
  "sourcePath": "C:/Users/Faiz Ahmed/Desktop/bcvote/bcvote/contracts/Election.sol",
  "compiler": {
    "name": "solc",
    "version": "0.5.16+commit.9c3226ce.Emscripten.clang"
  },
  "schemaVersion": "3.0.3",
  "updatedAt": "2020-10-06T04:05:40.319Z",
  "devdoc": {
    "methods": {}
  },
  "userdoc": {
    "methods": {}
  }
}