{
  "contractName": "Election",
  "abi": [
    {
      "constant": true,
      "inputs": [],
      "name": "candidatesCount",
      "outputs": [
        {
          "name": "",
          "type": "uint256"
        }
      ],
      "payable": false,
      "stateMutability": "view",
      "type": "function",
      "signature": "0x2d35a8a2"
    },
    {
      "constant": true,
      "inputs": [
        {
          "name": "",
          "type": "uint256"
        }
      ],
      "name": "candidates",
      "outputs": [
        {
          "name": "id",
          "type": "uint256"
        },
        {
          "name": "CfirstName",
          "type": "string"
        },
        {
          "name": "ClastName",
          "type": "string"
        },
        {
          "name": "CidNumber",
          "type": "string"
        },
        {
          "name": "voteCount",
          "type": "uint256"
        }
      ],
      "payable": false,
      "stateMutability": "view",
      "type": "function",
      "signature": "0x3477ee2e"
    },
    {
      "constant": true,
      "inputs": [
        {
          "name": "",
          "type": "uint256"
        }
      ],
      "name": "users",
      "outputs": [
        {
          "name": "firstName",
          "type": "string"
        },
        {
          "name": "lastName",
          "type": "string"
        },
        {
          "name": "idNumber",
          "type": "string"
        },
        {
          "name": "email",
          "type": "string"
        },
        {
          "name": "password",
          "type": "string"
        },
        {
          "name": "add",
          "type": "address"
        }
      ],
      "payable": false,
      "stateMutability": "view",
      "type": "function",
      "signature": "0x365b98b2"
    },
    {
      "constant": true,
      "inputs": [],
      "name": "manager",
      "outputs": [
        {
          "name": "",
          "type": "address"
        }
      ],
      "payable": false,
      "stateMutability": "view",
      "type": "function",
      "signature": "0x481c6a75"
    },
    {
      "constant": true,
      "inputs": [],
      "name": "usersCount",
      "outputs": [
        {
          "name": "",
          "type": "uint256"
        }
      ],
      "payable": false,
      "stateMutability": "view",
      "type": "function",
      "signature": "0x6ba13a82"
    },
    {
      "constant": true,
      "inputs": [
        {
          "name": "",
          "type": "address"
        }
      ],
      "name": "voters",
      "outputs": [
        {
          "name": "",
          "type": "bool"
        }
      ],
      "payable": false,
      "stateMutability": "view",
      "type": "function",
      "signature": "0xa3ec138d"
    },
    {
      "inputs": [],
      "payable": false,
      "stateMutability": "nonpayable",
      "type": "constructor",
      "signature": "constructor"
    },
    {
      "anonymous": false,
      "inputs": [
        {
          "indexed": false,
          "name": "indexed_candidateId",
          "type": "uint256"
        }
      ],
      "name": "votedEvent",
      "type": "event",
      "signature": "0xfff3c900d938d21d0990d786e819f29b8d05c1ef587b462b939609625b684b16"
    },
    {
      "constant": false,
      "inputs": [
        {
          "name": "_CfirstName",
          "type": "string"
        },
        {
          "name": "_ClastName",
          "type": "string"
        },
        {
          "name": "_CidNumber",
          "type": "string"
        }
      ],
      "name": "addCandidate",
      "outputs": [],
      "payable": false,
      "stateMutability": "nonpayable",
      "type": "function",
      "signature": "0xad71f8dc"
    },
    {
      "constant": false,
      "inputs": [
        {
          "name": "_candidateId",
          "type": "uint256"
        }
      ],
      "name": "vote",
      "outputs": [],
      "payable": false,
      "stateMutability": "nonpayable",
      "type": "function",
      "signature": "0x0121b93f"
    },
    {
      "constant": false,
      "inputs": [
        {
          "name": "_firstName",
          "type": "string"
        },
        {
          "name": "_lastName",
          "type": "string"
        },
        {
          "name": "_idNumber",
          "type": "string"
        },
        {
          "name": "_email",
          "type": "string"
        },
        {
          "name": "_password",
          "type": "string"
        }
      ],
      "name": "addUser",
      "outputs": [],
      "payable": false,
      "stateMutability": "nonpayable",
      "type": "function",
      "signature": "0xb37a3d82"
    }
  ],
  "bytecode": "0x608060405234801561001057600080fd5b50336000806101000a81548173ffffffffffffffffffffffffffffffffffffffff021916908373ffffffffffffffffffffffffffffffffffffffff16021790555061154e806100606000396000f3fe608060405260043610610099576000357c0100000000000000000000000000000000000000000000000000000000900463ffffffff1680630121b93f1461009e5780632d35a8a2146100d95780633477ee2e14610104578063365b98b21461029e578063481c6a75146105355780636ba13a821461058c578063a3ec138d146105b7578063ad71f8dc14610620578063b37a3d8214610816575b600080fd5b3480156100aa57600080fd5b506100d7600480360360208110156100c157600080fd5b8101908080359060200190929190505050610b3a565b005b3480156100e557600080fd5b506100ee610c6d565b6040518082815260200191505060405180910390f35b34801561011057600080fd5b5061013d6004803603602081101561012757600080fd5b8101908080359060200190929190505050610c73565b60405180868152602001806020018060200180602001858152602001848103845288818151815260200191508051906020019080838360005b83811015610191578082015181840152602081019050610176565b50505050905090810190601f1680156101be5780820380516001836020036101000a031916815260200191505b50848103835287818151815260200191508051906020019080838360005b838110156101f75780820151818401526020810190506101dc565b50505050905090810190601f1680156102245780820380516001836020036101000a031916815260200191505b50848103825286818151815260200191508051906020019080838360005b8381101561025d578082015181840152602081019050610242565b50505050905090810190601f16801561028a5780820380516001836020036101000a031916815260200191505b509850505050505050505060405180910390f35b3480156102aa57600080fd5b506102d7600480360360208110156102c157600080fd5b8101908080359060200190929190505050610e71565b6040518080602001806020018060200180602001806020018773ffffffffffffffffffffffffffffffffffffffff1673ffffffffffffffffffffffffffffffffffffffff16815260200186810386528c818151815260200191508051906020019080838360005b8381101561035957808201518184015260208101905061033e565b50505050905090810190601f1680156103865780820380516001836020036101000a031916815260200191505b5086810385528b818151815260200191508051906020019080838360005b838110156103bf5780820151818401526020810190506103a4565b50505050905090810190601f1680156103ec5780820380516001836020036101000a031916815260200191505b5086810384528a818151815260200191508051906020019080838360005b8381101561042557808201518184015260208101905061040a565b50505050905090810190601f1680156104525780820380516001836020036101000a031916815260200191505b50868103835289818151815260200191508051906020019080838360005b8381101561048b578082015181840152602081019050610470565b50505050905090810190601f1680156104b85780820380516001836020036101000a031916815260200191505b50868103825288818151815260200191508051906020019080838360005b838110156104f15780820151818401526020810190506104d6565b50505050905090810190601f16801561051e5780820380516001836020036101000a031916815260200191505b509b50505050505050505050505060405180910390f35b34801561054157600080fd5b5061054a6111c5565b604051808273ffffffffffffffffffffffffffffffffffffffff1673ffffffffffffffffffffffffffffffffffffffff16815260200191505060405180910390f35b34801561059857600080fd5b506105a16111ea565b6040518082815260200191505060405180910390f35b3480156105c357600080fd5b50610606600480360360208110156105da57600080fd5b81019080803573ffffffffffffffffffffffffffffffffffffffff1690602001909291905050506111f0565b604051808215151515815260200191505060405180910390f35b34801561062c57600080fd5b506108146004803603606081101561064357600080fd5b810190808035906020019064010000000081111561066057600080fd5b82018360208201111561067257600080fd5b8035906020019184600183028401116401000000008311171561069457600080fd5b91908080601f016020809104026020016040519081016040528093929190818152602001838380828437600081840152601f19601f820116905080830192505050505050509192919290803590602001906401000000008111156106f757600080fd5b82018360208201111561070957600080fd5b8035906020019184600183028401116401000000008311171561072b57600080fd5b91908080601f016020809104026020016040519081016040528093929190818152602001838380828437600081840152601f19601f8201169050808301925050505050505091929192908035906020019064010000000081111561078e57600080fd5b8201836020820111156107a057600080fd5b803590602001918460018302840111640100000000831117156107c257600080fd5b91908080601f016020809104026020016040519081016040528093929190818152602001838380828437600081840152601f19601f820116905080830192505050505050509192919290505050611210565b005b34801561082257600080fd5b50610b38600480360360a081101561083957600080fd5b810190808035906020019064010000000081111561085657600080fd5b82018360208201111561086857600080fd5b8035906020019184600183028401116401000000008311171561088a57600080fd5b91908080601f016020809104026020016040519081016040528093929190818152602001838380828437600081840152601f19601f820116905080830192505050505050509192919290803590602001906401000000008111156108ed57600080fd5b8201836020820111156108ff57600080fd5b8035906020019184600183028401116401000000008311171561092157600080fd5b91908080601f016020809104026020016040519081016040528093929190818152602001838380828437600081840152601f19601f8201169050808301925050505050505091929192908035906020019064010000000081111561098457600080fd5b82018360208201111561099657600080fd5b803590602001918460018302840111640100000000831117156109b857600080fd5b91908080601f016020809104026020016040519081016040528093929190818152602001838380828437600081840152601f19601f82011690508083019250505050505050919291929080359060200190640100000000811115610a1b57600080fd5b820183602082011115610a2d57600080fd5b80359060200191846001830284011164010000000083111715610a4f57600080fd5b91908080601f016020809104026020016040519081016040528093929190818152602001838380828437600081840152601f19601f82011690508083019250505050505050919291929080359060200190640100000000811115610ab257600080fd5b820183602082011115610ac457600080fd5b80359060200191846001830284011164010000000083111715610ae657600080fd5b91908080601f016020809104026020016040519081016040528093929190818152602001838380828437600081840152601f19601f820116905080830192505050505050509192919290505050611330565b005b600160003373ffffffffffffffffffffffffffffffffffffffff1673ffffffffffffffffffffffffffffffffffffffff16815260200190815260200160002060009054906101000a900460ff16151515610b9357600080fd5b600081118015610ba557506003548111155b1515610bb057600080fd5b60018060003373ffffffffffffffffffffffffffffffffffffffff1673ffffffffffffffffffffffffffffffffffffffff16815260200190815260200160002060006101000a81548160ff021916908315150217905550600260008281526020019081526020016000206004016000815480929190600101919050555060008190507ffff3c900d938d21d0990d786e819f29b8d05c1ef587b462b939609625b684b16826040518082815260200191505060405180910390a15050565b60035481565b6002602052806000526040600020600091509050806000015490806001018054600181600116156101000203166002900480601f016020809104026020016040519081016040528092919081815260200182805460018160011615610100020316600290048015610d255780601f10610cfa57610100808354040283529160200191610d25565b820191906000526020600020905b815481529060010190602001808311610d0857829003601f168201915b505050505090806002018054600181600116156101000203166002900480601f016020809104026020016040519081016040528092919081815260200182805460018160011615610100020316600290048015610dc35780601f10610d9857610100808354040283529160200191610dc3565b820191906000526020600020905b815481529060010190602001808311610da657829003601f168201915b505050505090806003018054600181600116156101000203166002900480601f016020809104026020016040519081016040528092919081815260200182805460018160011615610100020316600290048015610e615780601f10610e3657610100808354040283529160200191610e61565b820191906000526020600020905b815481529060010190602001808311610e4457829003601f168201915b5050505050908060040154905085565b6004602052806000526040600020600091509050806000018054600181600116156101000203166002900480601f016020809104026020016040519081016040528092919081815260200182805460018160011615610100020316600290048015610f1d5780601f10610ef257610100808354040283529160200191610f1d565b820191906000526020600020905b815481529060010190602001808311610f0057829003601f168201915b505050505090806001018054600181600116156101000203166002900480601f016020809104026020016040519081016040528092919081815260200182805460018160011615610100020316600290048015610fbb5780601f10610f9057610100808354040283529160200191610fbb565b820191906000526020600020905b815481529060010190602001808311610f9e57829003601f168201915b505050505090806002018054600181600116156101000203166002900480601f0160208091040260200160405190810160405280929190818152602001828054600181600116156101000203166002900480156110595780601f1061102e57610100808354040283529160200191611059565b820191906000526020600020905b81548152906001019060200180831161103c57829003601f168201915b505050505090806003018054600181600116156101000203166002900480601f0160208091040260200160405190810160405280929190818152602001828054600181600116156101000203166002900480156110f75780601f106110cc576101008083540402835291602001916110f7565b820191906000526020600020905b8154815290600101906020018083116110da57829003601f168201915b505050505090806004018054600181600116156101000203166002900480601f0160208091040260200160405190810160405280929190818152602001828054600181600116156101000203166002900480156111955780601f1061116a57610100808354040283529160200191611195565b820191906000526020600020905b81548152906001019060200180831161117857829003601f168201915b5050505050908060050160009054906101000a900473ffffffffffffffffffffffffffffffffffffffff16905086565b6000809054906101000a900473ffffffffffffffffffffffffffffffffffffffff1681565b60055481565b60016020528060005260406000206000915054906101000a900460ff1681565b6000809054906101000a900473ffffffffffffffffffffffffffffffffffffffff1673ffffffffffffffffffffffffffffffffffffffff163373ffffffffffffffffffffffffffffffffffffffff1614151561126b57600080fd5b60036000815480929190600101919050555060a060405190810160405280600354815260200184815260200183815260200182815260200160008152506002600060035481526020019081526020016000206000820151816000015560208201518160010190805190602001906112e392919061147d565b50604082015181600201908051906020019061130092919061147d565b50606082015181600301908051906020019061131d92919061147d565b5060808201518160040155905050505050565b60056000815480929190600101919050555060c0604051908101604052808681526020018581526020018481526020018381526020018281526020013373ffffffffffffffffffffffffffffffffffffffff1681525060046000600554815260200190815260200160002060008201518160000190805190602001906113b792919061147d565b5060208201518160010190805190602001906113d492919061147d565b5060408201518160020190805190602001906113f192919061147d565b50606082015181600301908051906020019061140e92919061147d565b50608082015181600401908051906020019061142b92919061147d565b5060a08201518160050160006101000a81548173ffffffffffffffffffffffffffffffffffffffff021916908373ffffffffffffffffffffffffffffffffffffffff1602179055509050505050505050565b828054600181600116156101000203166002900490600052602060002090601f016020900481019282601f106114be57805160ff19168380011785556114ec565b828001600101855582156114ec579182015b828111156114eb5782518255916020019190600101906114d0565b5b5090506114f991906114fd565b5090565b61151f91905b8082111561151b576000816000905550600101611503565b5090565b9056fea165627a7a723058203bbb95be276a8593918dd69cae154a7c66f6cd886c4a2cb79d781e552752e2300029",
  "source": "pragma solidity ^0.5.0;\r\n\r\ncontract Election{\r\n\r\n    address public manager;\r\n\r\n    struct Candidate {\r\n        uint id;\r\n        string CfirstName;\r\n        string ClastName;\r\n        string CidNumber;\r\n        uint voteCount;\r\n    }\r\n\r\n    mapping (address => bool) public voters;\r\n\r\n    mapping (uint => Candidate) public candidates;\r\n\r\n    uint public candidatesCount;\r\n\r\n    event votedEvent (\r\n        uint indexed_candidateId\r\n    );\r\n\r\n\r\n    constructor () public {\r\n        manager = msg.sender;\r\n    }\r\n\r\n    function addCandidate (string memory _CfirstName, string memory _ClastName, string memory _CidNumber) public restricted{\r\n        candidatesCount++;\r\n        candidates[candidatesCount] = Candidate(candidatesCount, _CfirstName, _ClastName, _CidNumber, 0);\r\n    }\r\n\r\n    modifier restricted () {\r\n        require(msg.sender == manager);\r\n        _;\r\n    }\r\n\r\n\r\n    function vote (uint _candidateId) public {\r\n        require(!voters[msg.sender]);\r\n\r\n        require(_candidateId > 0 && _candidateId <= candidatesCount);\r\n\r\n        voters[msg.sender] = true;\r\n\r\n        candidates[_candidateId].voteCount ++;\r\n\r\n        uint candidateId = _candidateId;\r\n\r\n        emit votedEvent(_candidateId);\r\n    }\r\n\r\n    //users\r\n    //register\r\n    struct User {\r\n        string firstName;\r\n        string lastName;\r\n        string idNumber;\r\n        string email;\r\n        string password;\r\n        address add;\r\n    }\r\n\r\n    mapping (uint => User) public users;\r\n\r\n    uint public usersCount;\r\n\r\n    function addUser (string memory _firstName, string memory _lastName, string memory _idNumber, string memory _email, string memory _password) public{\r\n        usersCount++;\r\n        users[usersCount] = User(_firstName, _lastName, _idNumber, _email, _password, msg.sender);\r\n    }\r\n\r\n\r\n\r\n\r\n}",
  "sourcePath": "C:/Users/Faiz Ahmed/Desktop/Projects/bcvote/contracts/Election.sol",
  "compiler": {
    "name": "solc",
    "version": "0.5.0+commit.1d4f565a.Emscripten.clang"
  },
  "schemaVersion": "3.0.3",
  "updatedAt": "2022-07-21T14:21:48.082Z",
  "devdoc": {
    "methods": {}
  },
  "userdoc": {
    "methods": {}
  }
}